:020000040800F2
:1000000000280020D50800080D080008190800087D
:100010001F080008250800082B0800080000000041
:10002000000000000000000000000000310800088F
:100030003D080008000000004908000855080008B5
:100040001D0900081D0900081D0900081D090008F8
:100050001D0900081D090008610800081D090008A5
:100060001D0900081D0900081D0900081D090008D8
:100070001D0900081D0900081D0900081D090008C8
:100080001D0900081D0900081D0900081D090008B8
:100090001D0900081D0900081D0900081D090008A8
:1000A0001D0900081D0900081D0900081D09000898
:1000B0001D0900081D090008000000001D090008B6
:1000C0001D09000800000000000000001D090008D4
:1000D000000000001D0900081D09000800000000C4
:1000E0001D0900081D0900081D0900080000000086
:1000F0000000000000000000000000000000000000
:0C01000000000000000000005FF808F1A3
:10010C0010B5054C237833B9044B13B10448AFF345
:10011C0000800123237010BD70000020000000003F
:10012C009C2B000808B5034B1BB103490348AFF3E4
:10013C00008008BD00000000740000209C2B00080B
:10014C0080B584B000AF03460A46FB711346BB7101
:10015C00BB791A464FF48071384801F017FBFB79D4
:10016C0003F00103FB73FB7B1A464FF480613348A9
:10017C0001F00CFBFB795B08DBB203F00103FB73B2
:10018C00FB7B1A4602212D4801F000FBFB799B08F2
:10019C00DBB203F00103FB73FB7B1A4604212748F7
:1001AC0001F0F4FAFB79DB08DBB203F00103FB731B
:1001BC00FB7B1A460821214801F0E8FAFB791B0960
:1001CC00DBB203F00103FB73FB7B1A4610211B48C7
:1001DC0001F0DCFAFB795B09DBB203F00103FB7382
:1001EC00FB7B1A462021154801F0D0FAFB799B09BC
:1001FC00DBB203F00103FB73FB7B1A4640210F4873
:10020C0001F0C4FAFB79DB09FB73FB7B1A468021F6
:10021C000A4801F0BBFA01224FF40071074801F0C3
:10022C00B5FA322000F0D8FB00224FF400710348DD
:10023C0001F0ACFA00BF1037BD4680BD000801408C
:10024C0080B500AF00213820FFF77AFF00210C2089
:10025C00FFF776FF00210620FFF772FF0021012037
:10026C00FFF76EFF00218020FFF76AFF00BF80BD03
:10027C0080B483B000AF0346FB80FB88012B09D10F
:10028C00074B1B78002B0CBF01230023DBB21A4653
:10029C00034B1A7000BF0C37BD4680BC704700BFC3
:1002AC008E00002080B500AF00224FF4806108481A
:1002BC0001F06CFA01224FF40061054801F066FA76
:1002CC0001224FF48051024801F060FA00BF80BD5A
:1002DC00000C014080B500AF01224FF4806108484A
:1002EC0001F054FA00224FF40061054801F04EFA77
:1002FC0001224FF48051024801F048FA00BF80BD42
:10030C00000C014080B500AF01224FF48061084819
:10031C0001F03CFA01224FF40061054801F036FA75
:10032C0000224FF48051024801F030FA00BF80BD2A
:10033C00000C014080B500AF01224FF480610B48E6
:10034C0001F024FA01224FF40061084801F01EFA72
:10035C0001224FF48051054801F018FA01224FF4A4
:10036C000051024801F012FA00BF80BD000C0140A0
:10037C0080B586B000AFFFF763FF114B1B88381DAB
:10038C00104A102101F0DEFF00210120FFF7D8FEFA
:10039C0000237B610AE03A1D7B6913441B78012121
:1003AC001846FFF7CDFE7B6901337B613A1D7B69F3
:1003BC0013441B78002BEED100BF1837BD4680BD0F
:1003CC008C000020B42B000880B582B000AF7860A0
:1003DC0000224FF40051084801F0D8F9786800F079
:1003EC00FBFA01224FF40051034801F0CFF900BF92
:1003FC000837BD4680BD00BF000C014080B588B0F9
:10040C0000AF00F087FA00F08FF800F01BF900F055
:10041C00DBF8FFF78FFFFFF713FF3E4B1B78002B2A
:10042C0052D03D4800F0D2FB4FF0FF313A4800F07B
:10043C00A7FC394800F0AAFD03467B83364800F040
:10044C0073FC7B8B4FF47A7202FB03F3334A82FB0F
:10045C0003121A44D212DB17D31A7B61304B1B8860
:10046C000A2B0DD8FFF71EFF2D4B1B8801339AB2B8
:10047C002B4B1A80FFF77CFF7869FFF7A5FFCCE7C1
:10048C00274B1B880A2B11D9254B1B88142B0DD8F5
:10049C00FFF720FF224B1B8801339AB2204B1A80A6
:1004AC00FFF766FF7869FFF78FFF31E0FFF72AFF50
:1004BC001B4B1B8801339AB2194B1A80FFF758FF5C
:1004CC007869FFF781FFA8E7FFF7BAFE3B1D154AD5
:1004DC0007CA83E8070000210120FFF731FE002343
:1004EC00FB610AE03A1DFB6913441B780121184695
:1004FC00FFF726FEFB690133FB613A1DFB691344D0
:10050C001B78002BEED1064B00221A80FFF712FF4E
:10051C0083E700BF8E0000209C0000208100088033
:10052C008C000020C02B000880B594B000AF07F100
:10053C00280328220021184601F0FCFE07F11403C1
:10054C0000221A605A609A60DA601A613B1D002220
:10055C001A605A609A60DA600223BB620123BB63A3
:10056C001023FB6300237B6407F12803184601F07A
:10057C003DF90346002B01D000F0D0F80F237B612E
:10058C000023BB610023FB6100233B6200237B62E1
:10059C0007F114030021184601F0A8FB0346002BB9
:1005AC0001D000F0BBF802237B600023FB603B1DF5
:1005BC00184601F023FD0346002B01D000F0AEF8E5
:1005CC0000BF5037BD4680BD80B584B000AF3B1D29
:1005DC0000221A605A609A60184B194A1A60174B1D
:1005EC0000229A60154B01221A73144B00221A75C3
:1005FC00124B4FF46022DA61104B00225A600F4B01
:10060C0001221A610D4800F009FA0346002B01D0B3
:10061C0000F084F800237B600123BB600023FB60A7
:10062C003B1D1946054800F0BDFC0346002B01D0CC
:10063C0000F074F800BF1037BD4680BD9C00002050
:10064C000024014080B586B000AF07F108030022FA
:10065C001A605A609A60DA602C4B9B692B4A43F003
:10066C0004039361294B9B6903F004037B607B6853
:10067C00264B9B69254A43F008039361234B9B69E6
:10068C0003F008033B603B68002240F2FE712048F7
:10069C0001F07CF801224FF470511E4801F076F8FD
:1006AC0040F2FE73BB600123FB6000233B6102231D
:1006BC007B6107F108031946154800F015FF01236B
:1006CC00BB60154BFB6000233B6107F10803194627
:1006DC00104800F009FF4FF47053BB600123FB601E
:1006EC0000233B6102237B6107F10803194609488B
:1006FC0000F0FAFE00220021062000F0BEFE0620CB
:10070C0000F0D7FE00BF1837BD4680BD0010024078
:10071C0000080140000C01400000111080B400AF33
:10072C0072B6FEE780B485B000AF154B9B69144AD6
:10073C0043F001039361124B9B6903F00103BB600F
:10074C00BB680F4BDB690E4A43F08053D3610C4BF3
:10075C00DB6903F080537B607B680A4B5B68FB6052
:10076C00FB6823F0E063FB60FB6843F08063FB6095
:10077C00044AFB68536000BF1437BD4680BC704709
:10078C00001002400000014080B588B000AF7860D6
:10079C0007F1100300221A605A609A60DA607B68D5
:1007AC001B68144A934221D1134B9B69124A43F4A0
:1007BC0000739361104B9B6903F40073FB60FB683F
:1007CC000D4B9B690C4A43F0040393610A4B9B69E4
:1007DC0003F00403BB60BB6801233B6103237B6113
:1007EC0007F110031946054800F07EFE00BF2037C4
:1007FC00BD4680BD002401400010024000080140AD
:10080C0080B400AF00BFBD4680BC704780B400AF61
:10081C00FEE780B400AFFEE780B400AFFEE780B423
:10082C0000AFFEE780B400AF00BFBD4680BC704790
:10083C0080B400AF00BFBD4680BC704780B400AF31
:10084C0000BFBD4680BC704780B500AF00F0A8F873
:10085C0000BF80BD80B500AF012000F0AFFF00BF2E
:10086C0080BD000080B584B000AF7860114B1B6870
:10087C00002B02D10F4B104A1A600E4B1B68FB6009
:10088C000C4B1A687B6813446A46934207D901F0F3
:10089C0027FD02460C2313604FF0FF3306E0054B97
:1008AC001A687B681344034A1360FB6818461037B8
:1008BC00BD4680BD90000020D800002080B400AF61
:1008CC0000BFBD4680BC70470C480D490D4A002343
:1008DC0002E0D458C4500433C4188C42F9D30A4AE9
:1008EC000A4C002301E013600432A242FBD3FFF751
:1008FC00E5FF01F0FBFCFFF781FD704700000020D5
:10090C0070000020482C000870000020D40000204B
:10091C00FEE7000080B500AF084B1B68074A43F0A8
:10092C0010031360032000F09DFD002000F008F878
:10093C00FFF7F8FE0023184680BD00BF00200240E0
:10094C0080B582B000AF7860124B1A68124B1B78DE
:10095C0019464FF47A73B3FBF1F3B2FBF3F3184679
:10096C0000F0B5FD0346002B01D001230EE07B689F
:10097C000F2B0AD8002279684FF0FF3000F07DFD74
:10098C00064A7B681360002300E0012318460837F1
:10099C00BD4680BD0000002008000020040000209F
:1009AC0080B400AF054B1B781A46054B1B681344EB
:1009BC00034A136000BFBD4680BC7047080000208E
:1009CC00CC00002080B400AF024B1B681846BD461B
:1009DC0080BC7047CC00002080B584B000AF78603C
:1009EC00FFF7F0FFB8607B68FB60FB68B3F1FF3F7B
:1009FC0005D0094B1B781A46FB681344FB6000BFFB
:100A0C00FFF7E0FF0246BB68D31AFA689A42F7D8A0
:100A1C0000BF1037BD4680BD0800002080B586B0F1
:100A2C0000AF78600023FB7500233B610023BB60A3
:100A3C000023FB607B68002B01D10123BEE07B68A7
:100A4C009B68002B7B689B6A002B09D17B6800227A
:100A5C00DA627B68002283F824207868FFF794FE22
:100A6C00786800F0F1FB0346FB757B689B6A03F02A
:100A7C001003002B40F09980FB7D002B40F09580FB
:100A8C007B689B6A23F4885323F0020343F0020231
:100A9C007B689A627B685A687B68DB691A437B685F
:100AAC001B7B5B001343BA681343BB607B689B687A
:100ABC00B3F5807F03D07B689B68012B02D14FF488
:100ACC00807300E000233A6913433B617B681B7D14
:100ADC00012B19D17B681B7B002B09D17B689B698F
:100AEC00013B5A033B69134343F400633B610BE046
:100AFC007B689B6A43F020027B689A627B68DB6AA6
:100B0C0043F001027B68DA627B681B685B6823F444
:100B1C0069417B681B683A690A435A607B681B68A9
:100B2C009A68284B13407A681268B9680B43936033
:100B3C007B689B68B3F5807F03D07B689B68012B37
:100B4C0004D17B681B69013B1B05FB607B681B6840
:100B5C00DB6A23F470017B681B68FA680A43DA626B
:100B6C007B681B689A68184B1340BA689A420BD181
:100B7C007B680022DA627B689B6A23F0030343F0F4
:100B8C0001027B689A6218E07B689B6A23F012036F
:100B9C0043F010027B689A627B68DB6A43F00102C7
:100BAC007B68DA620123FB7507E07B689B6A43F084
:100BBC0010027B689A620123FB75FB7D184618377F
:100BCC00BD4680BDFDF7E1FFFE0E1FFF80B584B072
:100BDC0000AF78600023FB737B6893F82430012B03
:100BEC0001D1022398E07B68012283F824207868E5
:100BFC0000F0D0FA0346FB73FB7B002B40F08780A0
:100C0C007B689B6A23F4407323F0010343F48072E6
:100C1C007B689A627B681B68414A934205D1414BC1
:100C2C005B6803F47023002B15D17B689B6A23F45B
:100C3C0080127B689A627B681B685B6803F4806334
:100C4C00002B26D07B689B6A23F4405343F48052DC
:100C5C007B689A621DE07B689B6A43F480127B6818
:100C6C009A627B681B682F4A934204D07B681B688E
:100C7C002B4A93420DD12B4B5B6803F48063002B02
:100C8C0007D07B689B6A23F4405343F480527B6803
:100C9C009A627B689B6A03F48053002B06D07B68B6
:100CAC00DB6A23F006027B68DA6202E07B680022D2
:100CBC00DA627B68002283F824207B681B686FF063
:100CCC0002021A607B681B689B6803F46023B3F50F
:100CDC00602F13D17B681B68114A934205D1114BCD
:100CEC005B6803F47023002B08D17B681B689A683F
:100CFC007B681B6842F4A0029A600CE07B681B685E
:100D0C009A687B681B6842F480129A6003E07B68E7
:100D1C00002283F82420FB7B18461037BD4680BD8B
:100D2C00002801400024014080B584B000AF7860F9
:100D3C000023FB737B6893F82430012B01D1022331
:100D4C001AE07B68012283F82420786800F07CFA92
:100D5C000346FB73FB7B002B09D17B689B6A23F456
:100D6C00885323F0010343F001027B689A627B688D
:100D7C00002283F82420FB7B18461037BD4680BD2B
:100D8C0090B587B000AF7860396000237B61002399
:100D9C00FB6000233B61FFF715FE78617B681B68E5
:100DAC009B6803F48073002B0BD07B689B6A43F029
:100DBC0020027B689A627B68002283F8242001233E
:100DCC00D3E07B681B685B6803F48073002B31D124
:100DDC007B681B68DB6A03F47003002B2AD121E0CB
:100DEC003B68B3F1FF3F1DD03B68002B07D0FFF7EA
:100DFC00E9FD02467B69D31A3A689A4212D27B68A3
:100E0C001B681B6803F00203002B0BD17B689B6AE9
:100E1C0043F004027B689A627B68002283F82420EA
:100E2C000323A2E07B681B681B6803F00203002B02
:100E3C00D6D070E04F4B1C68022001F095F90346A8
:100E4C00B4FBF3F27B681B6819694B4B0B40002B0E
:100E5C0018D17B681B68D968484B0B40002B11D10B
:100E6C007B681B681969464B0B40002B08D17B68CB
:100E7C001B68D968434B0B40002B01D1142320E095
:100E8C0029231EE07B681B6819693D4B0B40002B26
:100E9C0006D17B681B68D9683A4B0B40002B0DD0F0
:100EAC007B681B681969384B0B40002B08D17B6899
:100EBC001B68D968344B0B40002B01D1542300E044
:100ECC00FC2302FB03F33B6121E03B68B3F1FF3FE2
:100EDC001AD03B68002B07D0FFF774FD02467B69E4
:100EEC00D31A3A689A420FD2FB683A699A420BD9E4
:100EFC007B689B6A43F004027B689A627B680022E1
:100F0C0083F82420032330E0FB680133FB60FB688B
:100F1C003A699A42D9D87B681B686FF012021A6042
:100F2C007B689B6A43F400727B689A627B681B68DF
:100F3C009B6803F46023B3F5602F15D17B681B7B92
:100F4C00002B11D17B689B6A23F480727B689A62B8
:100F5C007B689B6A03F48053002B05D17B689B6AEA
:100F6C0043F001027B689A62002318461C37BD4689
:100F7C0090BD00BF00000020244992242449920017
:100F8C0092244912922449004992240080B483B0DF
:100F9C0000AF78607B681B68DB6C18460C37BD466D
:100FAC0080BC704780B485B000AF78603960002396
:100FBC00FB730023BB607B6893F82430012B01D1B9
:100FCC000223DCE07B68012283F824203B685B6809
:100FDC00062B1CD87B681B68596B3B685A681346F8
:100FEC009B001344053B1F2202FA03F3DB43194019
:100FFC003B6818683B685A6813469B001344053BD2
:10100C0000FA03F27B681B680A435A633CE03B68B6
:10101C005B680C2B1CD87B681B68196B3B685A6887
:10102C0013469B001344233B1F2202FA03F3DB43BA
:10103C0019403B6818683B685A6813469B00134478
:10104C00233B00FA03F27B681B680A431A631BE01C
:10105C007B681B68D96A3B685A6813469B0013442B
:10106C00413B1F2202FA03F3DB4319403B6818682B
:10107C003B685A6813469B001344413B00FA03F249
:10108C007B681B680A43DA623B681B68092B1CD916
:10109C007B681B68D9683B681A6813465B0013446D
:1010AC001E3B072202FA03F3DB4319403B689868A6
:1010BC003B681A6813465B0013441E3B00FA03F2AC
:1010CC007B681B680A43DA6019E07B681B68196946
:1010DC003B681A6813465B001344072202FA03F3B9
:1010EC00DB4319403B6898683B681A6813465B0001
:1010FC00134400FA03F27B681B680A431A613B68CD
:10110C001B68102B03D03B681B68112B32D17B68FA
:10111C001B681D4A934225D17B681B689B6803F4AE
:10112C000003002B26D17B681B689A687B681B68C0
:10113C0042F400029A603B681B68102B1AD1134BC7
:10114C001B68134AA2FB03239A0C13469B001344FF
:10115C005B00BB6002E0BB68013BBB60BB68002B63
:10116C00F9D107E07B689B6A43F020027B689A62A6
:10117C000123FB737B68002283F82420FB7B184639
:10118C001437BD4680BC704700240140000000208D
:10119C0083DE1B4380B584B000AF78600023FB6016
:1011AC000023BB607B681B689B6803F00103012B69
:1011BC0040D07B681B689A687B681B6842F0010210
:1011CC009A601F4B1B681F4AA2FB03239B0CBB603E
:1011DC0002E0BB68013BBB60BB68002BF9D1FFF799
:1011EC00F1FBF8601FE0FFF7EDFB0246FB68D31A3A
:1011FC00022B18D97B681B689B6803F00103012B39
:10120C0011D07B689B6A43F010027B689A627B6802
:10121C00DB6A43F001027B68DA627B68002283F8A8
:10122C002420012307E07B681B689B6803F0010303
:10123C00012BD8D1002318461037BD4680BD00BF06
:10124C000000002083DE1B4380B584B000AF7860C3
:10125C000023FB607B681B689B6803F00103012B78
:10126C002ED17B681B689A687B681B6822F0010290
:10127C009A60FFF7A7FBF8601BE0FFF7A3FB0246A1
:10128C00FB68D31A022B14D97B681B689B6803F08C
:10129C000103012B0DD17B689B6A43F010027B6824
:1012AC009A627B68DB6A43F001027B68DA62012395
:1012BC0007E07B681B689B6803F00103012BDCD003
:1012CC00002318461037BD4680BD000080B485B0A1
:1012DC0000AF78607B6803F00703FB600C4BDB68A6
:1012EC00BB60BA684FF6FF031340BB60FB681A0281
:1012FC00BB68134343F0BF6343F40033BB60044A41
:10130C00BB68D36000BF1437BD4680BC704700BFBC
:10131C0000ED00E080B400AF044BDB681B0A03F067
:10132C0007031846BD4680BC704700BF00ED00E0C7
:10133C0080B483B000AF0346FB7197F90730002BE4
:10134C000BDBFB7903F01F02064997F907305B09A9
:10135C00012000FA02F241F8232000BF0C37BD46F1
:10136C0080BC704700E100E080B483B000AF03465E
:10137C003960FB7197F90730002B0ADB3B68DAB256
:10138C000C4997F907301201D2B20B4483F80023B1
:10139C000AE03B68DAB20849FB7903F00F03043B1F
:1013AC001201D2B20B441A7600BF0C37BD4680BC7A
:1013BC00704700BF00E100E000ED00E080B489B0B0
:1013CC0000AFF860B9607A60FB6803F00703FB615B
:1013DC00FB69C3F10703042B28BF0423BB61FB6922
:1013EC000433062B02D9FB69033B00E000237B612D
:1013FC004FF0FF32BB6902FA03F3DA43BB681A40C1
:10140C007B699A404FF0FF317B6901FA03F3D943B2
:10141C007B680B40134318462437BD4680BC70478D
:10142C0080B582B000AF78607B68013BB3F1807F00
:10143C0001D301230FE00A4A7B68013B53600F2163
:10144C004FF0FF30FFF790FF054B00229A60044BE2
:10145C0007221A60002318460837BD4680BD00BF1E
:10146C0010E000E080B582B000AF78607868FFF7DC
:10147C002DFF00BF0837BD4680BD80B586B000AFDC
:10148C000346B9607A60FB7300237B61FFF742FF70
:10149C0078617A68B9687869FFF790FF024697F926
:1014AC000F3011461846FFF75FFF00BF1837BD46D7
:1014BC0080BD80B582B000AF0346FB7197F9073051
:1014CC001846FFF735FF00BF0837BD4680BD80B515
:1014DC0082B000AF78607868FFF7A2FF0346184629
:1014EC000837BD4680BD000080B48BB000AF78607B
:1014FC00396000237B6200233B6221E101227B6A7D
:10150C0002FA03F3FB613B681B68FA691340BB6189
:10151C00BA69FB699A4240F010813B685B68122BF8
:10152C0034D0122B0DD8022B2BD0022B04D8002B2D
:10153C0031D0012B1CD048E0032B43D0112B1BD0F6
:10154C0043E0864A934226D0844A934206D8844A82
:10155C00934220D0834A93421DD036E0824A934274
:10156C0019D0824A934216D0814A934213D02CE070
:10157C003B68DB683B6228E03B68DB6804333B621A
:10158C0023E03B68DB6808333B621EE03B68DB68AA
:10159C000C333B6219E03B689B68002B02D104239F
:1015AC003B6212E03B689B68012B05D108233B6230
:1015BC007B68FA691A6108E008233B627B68FA6968
:1015CC005A6102E000233B6200BFBB69FF2B01D8CC
:1015DC007B6801E07B6804337B61BB69FF2B02D81D
:1015EC007B6A9B0002E07B6A083B9B003B617B694A
:1015FC001A680F213B6901FA03F3DB431A40396A7D
:10160C003B6901FA03F31A437B691A603B685B6818
:10161C0003F08053002B00F09080564B9B69554A89
:10162C0043F001039361534B9B6903F00103BB60CF
:10163C00BB68514A7B6A9B08023352F82330FB602B
:10164C007B6A03F003039B000F2202FA03F3DB43D4
:10165C00FA681340FB607B68484A93420DD07B6864
:10166C00474A934207D07B68464A934201D10223F2
:10167C0004E0032302E0012300E000237A6A02F075
:10168C00030292009340FA681343FB603A497B6A69
:10169C009B080233FA6841F823203B685B6803F42B
:1016AC008033002B06D0384B1A683749BB6913437B
:1016BC000B6006E0344B1A68BB69DB4332491340BC
:1016CC000B603B685B6803F40033002B06D02E4B99
:1016DC005A682D49BB6913434B6006E02A4B5A6884
:1016EC00BB69DB43284913404B603B685B6803F4E0
:1016FC008013002B06D0244B9A682349BB691343F3
:10170C008B6006E0204B9A68BB69DB431E49134093
:10171C008B603B685B6803F40013002B06D01A4BFC
:10172C00DA681949BB691343CB6006E0164BDA68DB
:10173C00BB69DB4314491340CB607B6A01337B628A
:10174C003B681A687B6A22FA03F3002B7FF4D6AE4F
:10175C0000BF2C37BD4680BC704700BF0000211075
:10176C0000001110000012100000311000003210A7
:10177C00000022100010024000000140000801404F
:10178C00000C0140001001400004014080B483B003
:10179C0000AF78600B467B8013467B707B78002B08
:1017AC0003D07A887B681A6103E07B881A047B6813
:1017BC001A6100BF0C37BD4680BC704780B582B043
:1017CC0000AF0346FB80084B5A69FB881340002B83
:1017DC0006D0054AFB885361FB881846FEF748FD86
:1017EC0000BF0837BD4680BD0004014080B586B0FF
:1017FC0000AF78607B68002B01D101236CE27B6821
:10180C001B6803F00103002B00F08780924B5B6890
:10181C0003F00C03042B0CD08F4B5B6803F00C0310
:10182C00082B12D18C4B5B6803F48033B3F5803FEB
:10183C000BD1894B1B6803F40033002B6CD07B68F5
:10184C005B68002B68D1012346E27B685B68B3F5CB
:10185C00803F06D1804B1B687F4A43F48033136072
:10186C002EE07B685B68002B0CD17B4B1B687A4AA3
:10187C0023F480331360784B1B68774A23F480235E
:10188C0013601DE07B685B68B3F5A02F0CD1724B25
:10189C001B68714A43F4802313606F4B1B686E4ABC
:1018AC0043F4803313600BE06B4B1B686A4A23F4E0
:1018BC0080331360684B1B68674A23F480231360E2
:1018CC007B685B68002B13D0FFF77CF8386108E06D
:1018DC00FFF778F802463B69D31A642B01D903232E
:1018EC00FAE15D4B1B6803F40033002BF0D014E0DD
:1018FC00FFF768F8386108E0FFF764F802463B69C7
:10190C00D31A642B01D90323E6E1534B1B6803F470
:10191C000033002BF0D100E000BF7B681B6803F0A4
:10192C000203002B63D04C4B5B6803F00C03002BC1
:10193C000BD0494B5B6803F00C03082B1CD1464BB6
:10194C005B6803F48033002B16D1434B1B6803F008
:10195C000203002B05D07B681B69012B01D00123EE
:10196C00BAE13D4B1B6823F0F8027B685B69DB0036
:10197C00394913430B603AE07B681B69002B20D07C
:10198C00364B01221A60FFF71DF8386108E0FFF7AB
:10199C0019F802463B69D31A022B01D903239BE1A8
:1019AC002D4B1B6803F00203002BF0D02A4B1B6855
:1019BC0023F0F8027B685B69DB00274913430B605B
:1019CC0015E0264B00221A60FEF7FCFF386108E098
:1019DC00FEF7F8FF02463B69D31A022B01D9032309
:1019EC007AE11D4B1B6803F00203002BF0D17B68DE
:1019FC001B6803F00803002B3AD07B689B69002B13
:101A0C0019D0174B01221A60FEF7DCFF386108E091
:101A1C00FEF7D8FF02463B69D31A022B01D90323E8
:101A2C005AE10D4B5B6A03F00203002BF0D001204E
:101A3C0000F0C6FA1CE00A4B00221A60FEF7C2FF47
:101A4C0038610FE0FEF7BEFF02463B69D31A022B4A
:101A5C0008D9032340E100BF0010024000004242BD
:101A6C00800442429E4B5B6A03F00203002BE9D1D7
:101A7C007B681B6803F00403002B00F0A680002396
:101A8C00FB75974BDB6903F08053002B0DD1944B06
:101A9C00DB69934A43F08053D361914BDB6903F0CC
:101AAC008053BB60BB680123FB758E4B1B6803F432
:101ABC008073002B18D18B4B1B688A4A43F48073BC
:101ACC001360FEF77FFF386108E0FEF77BFF0246EC
:101ADC003B69D31A642B01D90323FDE0814B1B68AE
:101AEC0003F48073002BF0D07B68DB68012B06D1EC
:101AFC007B4B1B6A7A4A43F0010313622DE07B682F
:101B0C00DB68002B0CD1764B1B6A754A23F0010362
:101B1C001362734B1B6A724A23F0040313621CE0BA
:101B2C007B68DB68052B0CD16D4B1B6A6C4A43F050
:101B3C00040313626A4B1B6A694A43F00103136284
:101B4C000BE0674B1B6A664A23F001031362644B7C
:101B5C001B6A634A23F0040313627B68DB68002B67
:101B6C0015D0FEF72FFF38610AE0FEF72BFF024677
:101B7C003B69D31A41F28832934201D90323ABE07B
:101B8C00574B1B6A03F00203002BEED014E0FEF758
:101B9C0019FF38610AE0FEF715FF02463B69D31ABC
:101BAC0041F28832934201D9032395E04C4B1B6AD6
:101BBC0003F00203002BEED1FB7D012B05D1484B2A
:101BCC00DB69474A23F08053D3617B68DB69002BC8
:101BDC0000F08180424B5B6803F00C03082B61D052
:101BEC007B68DB69022B46D13F4B00221A60FEF763
:101BFC00E9FE386108E0FEF7E5FE02463B69D31AC0
:101C0C00022B01D9032367E0354B1B6803F00073EB
:101C1C00002BF0D17B681B6AB3F5803F08D1304BA9
:101C2C005B6823F400327B689B682D4913434B603F
:101C3C002B4B5B6823F474127B68196A7B685B6AB4
:101C4C000B43274913434B60274B01221A60FEF7C5
:101C5C00B9FE386108E0FEF7B5FE02463B69D31ABF
:101C6C00022B01D9032337E01D4B1B6803F00073D3
:101C7C00002BF0D02FE01C4B00221A60FEF7A2FEC6
:101C8C00386108E0FEF79EFE02463B69D31A022B30
:101C9C0001D9032320E0124B1B6803F00073002BC7
:101CAC00F0D118E07B68DB69012B01D1012313E033
:101CBC000B4B5B68FB60FB6803F480327B681B6A30
:101CCC009A4206D1FB6803F470127B685B6A9A42F5
:101CDC0001D0012300E0002318461837BD4680BD13
:101CEC0000100240007000406000424280B584B099
:101CFC0000AF786039607B68002B01D10123D0E004
:101D0C006A4B1B6803F007033A689A4210D9674B79
:101D1C001B6823F0070265493B6813430B60634B58
:101D2C001B6803F007033A689A4201D00123B8E01C
:101D3C007B681B6803F00203002B20D07B681B68B8
:101D4C0003F00403002B05D0594B5B68584A43F44D
:101D5C00E06353607B681B6803F00803002B05D01D
:101D6C00534B5B68524A43F460535360504B5B686F
:101D7C0023F0F0027B689B684D4913434B607B68F2
:101D8C001B6803F00103002B40D07B685B68012BC0
:101D9C0007D1474B1B6803F40033002B15D10123EB
:101DAC007FE07B685B68022B07D1414B1B6803F01B
:101DBC000073002B09D1012373E03D4B1B6803F02A
:101DCC000203002B01D101236BE0394B5B6823F03C
:101DDC0003027B685B68364913434B60FEF7F2FDE8
:101DEC00F8600AE0FEF7EEFD0246FB68D31A41F2FA
:101DFC008832934201D9032353E02D4B5B6803F0E7
:101E0C000C027B685B689B009A42EBD1274B1B68EA
:101E1C0003F007033A689A4210D2244B1B6823F054
:101E2C00070222493B6813430B60204B1B6803F0ED
:101E3C0007033A689A4201D0012332E07B681B68A1
:101E4C0003F00403002B08D0194B5B6823F4E06209
:101E5C007B68DB68164913434B607B681B6803F097
:101E6C000803002B09D0124B5B6823F460527B688B
:101E7C001B69DB000E4913434B6000F021F801464F
:101E8C000B4B5B681B0903F00F030A4AD35C21FA66
:101E9C0003F3094A1360094B1B681846FEF750FD03
:101EAC00002318461037BD4680BD00BF00200240FD
:101EBC0000100240F42B0008000000200400002059
:101ECC0090B48AB000AF2A4B3C1D0FCB84E80F00B6
:101EDC00284B1B883B800023FB610023BB61002344
:101EEC007B6200237B6100233B62234B5B68FB61BD
:101EFC00FB6903F00C03042B02D0082B03D02DE05C
:101F0C001E4B3B622DE0FB699B0C03F00F0307F1AA
:101F1C002802134413F8243C7B61FB6903F48033DF
:101F2C00002B13D0144B5B685B0C03F0010307F11F
:101F3C002802134413F8283CBB617B690F4A02FB4F
:101F4C0003F2BB69B2FBF3F37B6204E07B690C4ADE
:101F5C0002FB03F37B627B6A3B6202E0074B3B6252
:101F6C0000BF3B6A18462837BD4690BC704700BF7F
:101F7C00CC2B0008DC2B00080010024000127A0069
:101F8C0000093D0080B400AF024B1B681846BD46EB
:101F9C0080BC70470000002080B500AFFFF7F2FF57
:101FAC000146054B5B68DB0A03F00703034AD35C6D
:101FBC0021FA03F3184680BD00100240042C0008DF
:101FCC0080B485B000AF78600A4B1B680A4AA2FB4C
:101FDC0003235B0A7A6802FB03F3FB6000BFFB6818
:101FEC005A1EFA60002BF9D100BF1437BD4680BCD5
:101FFC00704700BF00000020D34D621080B586B042
:10200C0000AF786000233B610023FB607B681B689A
:10201C0003F00103002B7DD00023FB754F4BDB69D4
:10202C0003F08053002B0DD14C4BDB694B4A43F032
:10203C008053D361494BDB6903F08053BB60BB68B1
:10204C000123FB75464B1B6803F48073002B18D1DE
:10205C00434B1B68424A43F480731360FEF7B2FC97
:10206C00386108E0FEF7AEFC02463B69D31A642BDC
:10207C0001D903236DE03A4B1B6803F48073002BEA
:10208C00F0D0364B1B6A03F44073FB60FB68002BEB
:10209C002ED07B685B6803F44073FA689A4227D0B1
:1020AC002E4B1B6A23F44073FB602E4B01221A60EB
:1020BC002C4B00221A60294AFB681362FB6803F060
:1020CC000103002B14D0FEF77DFC38610AE0FEF70B
:1020DC0079FC02463B69D31A41F28832934201D90A
:1020EC00032336E01D4B1B6A03F00203002BEED0DA
:1020FC001A4B1B6A23F440727B685B6817491343C5
:10210C000B62FB7D012B05D1144BDB69134A23F0C9
:10211C008053D3617B681B6803F00203002B08D04B
:10212C000E4B5B6823F440427B689B680B4913435E
:10213C004B607B681B6803F01003002B08D0074B27
:10214C005B6823F480027B68DB68044913434B60B3
:10215C00002318461837BD4680BD00BF0010024052
:10216C00007000404004424290B58DB000AF7860E2
:10217C00554B07F10C040FCB84E80F00534B1B8815
:10218C003B8100237B620023FB6200233B62002324
:10219C00FB610023BB627B68022B7FD0102B02D02B
:1021AC00012B48D08BE04A4B5B68FB61484B1B68AA
:1021BC0003F08073002B7FD0FB699B0C03F00F03A3
:1021CC0007F13002134413F8243C3B62FB6903F41F
:1021DC008033002B18D03E4B5B685B0C03F0010383
:1021EC0007F13002134413F8283C7B62FB6903F4BB
:1021FC008033002B0DD0374A7B6AB2FBF3F23B6A7B
:10220C0002FB03F3FB6204E03B6A334A02FB03F379
:10221C00FB622F4B5B6803F48003B3F5800F02D194
:10222C00FB6ABB6248E0FB6A5B002C4AA2FB0323FF
:10223C005B08BB6240E0264B1B6AFB61FB6903F445
:10224C004073B3F5807F08D1FB6903F00203002BC8
:10225C0003D04FF40043BB621FE0FB6903F44073EF
:10226C00B3F5007F09D11A4B5B6A03F00203002B14
:10227C0003D049F64043BB620FE0FB6903F44073A3
:10228C00B3F5407F1AD1124B1B6803F40033002BBB
:10229C0014D04FF22443BB6210E00FE0FFF77CFE3A
:1022AC0002460B4B5B689B0B03F0030301335B0093
:1022BC00B2FBF3F3BB6202E000BF00E000BFBB6AFD
:1022CC0018463437BD4690BDE02B0008F02B0008B3
:1022DC000010024000127A0000093D00ABAAAAAA25
:1022EC00014B1868704700BF0C00002070B500252A
:1022FC000C4E0D4CA41BA410A54209D100F048FCB7
:10230C0000250A4E0A4CA41BA410A54205D170BD91
:10231C0056F8253098470135EEE756F825309847A2
:10232C000135F2E7402C0008402C0008402C000836
:10233C00442C000803460244934200D1704703F832
:10234C00011BF9E70CB430B5174B0C1E9DB01D6882
:10235C0008DA8B234FF0FF302B601DB0BDE8304006
:10236C0002B070474FF40273ADF814300CBF234623
:10237C0004F1FF33049307934FF6FF73029006901A
:10238C00ADF81630209A21AB02A92846019300F033
:10239C0067F8431CBCBF8B232B60002CDDD00022C4
:1023AC00029B1A70D9E700BF0C0000202DE9F04702
:1023BC008E6882469E420C469046994637D88A894A
:1023CC0012F4906F31D00223256809696F1A656980
:1023DC0005EB450595FBF3F509F101033B449D42E3
:1023EC0038BF1D46530530D5294600F037FB06464D
:1023FC0050B90C234FF0FF30CAF80030A38943F0DA
:10240C004003A381BDE8F0873A46216900F0B6FA93
:10241C00A38923F4906343F08003A38126613E4497
:10242C0026604E466561ED1BA5604E4500D94E46B3
:10243C0032464146206800F0ACFAA36800209B1B92
:10244C00A36023681E442660DCE72A4600F060FB8C
:10245C0006460028E2D12169504600F0B3FAC8E7DD
:10246C002DE9F04F1D468B899DB01F0680460C460A
:10247C0016460FD50B696BB9402100F0EFFA2060BE
:10248C00206128B90C23C8F800304FF0FF30C8E0A9
:10249C00402363610023099320238DF829303023D6
:1024AC004FF0010B8DF82A30039537463D4615F851
:1024BC00013B0BB1252B3ED1B7EB060A0BD0534693
:1024CC00324621464046FFF771FF013000F0A480F0
:1024DC00099B534409933B78002B00F09D8000230B
:1024EC004FF0FF32CDE90523049307938DF8533059
:1024FC001A932F46052217F8011B504800F030FAAA
:10250C00049BD0B9D90644BF20228DF853201A075A
:10251C0044BF2B228DF853202A782A2A15D02F4617
:10252C0000200A25079A394611F8013B303B092B4C
:10253C004DD9B8B10FE02F46B8E7404A3D46801A56
:10254C000BFA00F018430490D3E7039A111D12689C
:10255C000391002A01DB079204E0524243F002038C
:10256C00079204933B782E2B0CD17B782A2B33D1FA
:10257C00039B02371A1D1B680392002BB8BF4FF048
:10258C00FF3305932E4D03223978284600F0E8F9E5
:10259C0038B14023401B03FA00F0049B013703437E
:1025AC0004933978062227487E1C8DF8281000F0F9
:1025BC00D7F9002838D0244B13BB039B073323F0E7
:1025CC00070308330393099B4B4409936DE705FB01
:1025DC00023201200F46A6E700230A2519460137CF
:1025EC000593384610F8012B303A092A03D9002BF1
:1025FC00C8D00591C6E705FB012101230746F0E78A
:10260C0003AB00932246114B04A94046AFF3008064
:10261C00B0F1FF3F8146D6D1A3895B063FF535AFBC
:10262C0009981DB0BDE8F08F03AB00932246074B11
:10263C0004A9404600F082F8EAE700BF0C2C000821
:10264C00122C0008162C000800000000B92300080A
:10265C002DE9F04791461F468A680B69064693425E
:10266C00B8BF1346C9F8003091F843200C46DDF88A
:10267C00208012B10133C9F800302368990642BF9B
:10268C00D9F800300233C9F80030256815F006057A
:10269C0007D104F1190AE368D9F800209B1AAB4260
:1026AC0029DC94F843302268003318BF01239206CA
:1026BC002ED404F1430239463046C047013021D0B4
:1026CC002368E56803F00603042B18BF0025D9F82E
:1026DC0000204FF0000908BFAD1AA368226908BF9B
:1026EC0025EAE5759342C4BF9B1AED181A344D4583
:1026FC001AD1002008E00123524639463046C04723
:10270C00013003D14FF0FF30BDE8F0870135C2E74F
:10271C003020E11881F843005A1C94F845102244EB
:10272C00023382F84310C4E701232246394630466F
:10273C00C0470130E6D009F10109D8E72DE9F04393
:10274C0001F1430C0C46097E85B06E2917460646EE
:10275C0098460C9A00F0B38022D8632936D00AD858
:10276C00002900F0B980582900F0838004F142055B
:10277C0084F8421032E0642901D06929F6D120682E
:10278C001368050603F104012AD51B681160002BA0
:10279C0003DA2D225B4284F843206F480A2239E089
:1027AC00732900F09D8008D86F2920D07029DDD1C5
:1027BC00236843F02003236003E0752917D07829A0
:1027CC00D4D17823654884F8453055E0136804F17A
:1027DC004205191D1B68116084F8423001238CE0FE
:1027EC001B6810F0400F116018BF1BB2CFE71368C5
:1027FC002568181D1060280601D51B6802E06806C4
:10280C00FBD51B886F2914BF0A22082252480021CD
:10281C0084F843106568002DA560C0F2958021688E
:10282C0021F004012160002B3DD1002D40F08E8061
:10283C006546082A0BD12368DB0708D52369626833
:10284C009A42DEBF302305F8013C05F1FF35ACEBB5
:10285C0005032361CDF800803B4603AA2146304690
:10286C00FFF7F6FE01304DD14FF0FF3005B0BDE85B
:10287C00F083394884F84510136821681D1D1B68C6
:10288C0015600A060BD5CA0744BF41F02001216030
:10289C001BB9226822F0200222601022B7E74D06F5
:1028AC0048BF9BB2EFE76546B3FBF2F102FB113375
:1028BC00C35C05F8013D0B460029F5D1B9E7136857
:1028CC002568181D6169106028061B6801D5196000
:1028DC0002E06A06FBD51980002365462361B9E73F
:1028EC001368191D11601D6862680021284600F0EC
:1028FC0037F808B1401B606063682361002384F8DB
:10290C004330A7E723692A4639463046C047013091
:10291C00AAD023689B0713D4E068039B9842B8BFE6
:10292C001846A3E701234A4639463046C0470130D2
:10293C009AD00135E368039A9B1AAB42F2DCEBE7C1
:10294C00002504F11909F5E7002BACD1037804F14B
:10295C00420584F842306CE71D2C00082E2C000830
:10296C0010B5C9B202449042034601D1002303E0E2
:10297C001C7801308C42F6D1184610BD10B5431EA0
:10298C000A44914200D110BD11F8014B03F8014FDC
:10299C00F7E7884210B501EB020307D8421E9942B3
:1029AC000AD011F8014B02F8014FF8E78342F5D930
:1029BC008118D21AD34200D110BD13F8014D01F881
:1029CC00014DF7E738B50546002943D051F8043CD2
:1029DC000C1F002BB8BFE41800F0D0F81E4A136887
:1029EC00104633B9636014602846BDE8384000F0E7
:1029FC00C6B8A3420BD921686218934201BF1A686A
:102A0C005B685218226063600460EDE713465A68F5
:102A1C000AB1A242FAD919685818A0420BD1206801
:102A2C000144581882421960DED110685268014482
:102A3C0019605A60D8E702D90C232B60D4E72068C0
:102A4C0021188A4201BF116852680918216062601E
:102A5C005C60C9E738BD00BF9400002070B5CD1C88
:102A6C0025F0030508350C2D38BF0C25002D064626
:102A7C0001DBA94203D90C233360002070BD00F0A8
:102A8C007DF8214A1468214691B9204C23681BB962
:102A9C00304600F063F820602946304600F05EF8BE
:102AAC00431C24D10C233046336000F068F8E4E773
:102ABC000B685B1B18D40B2B0FD90B60CC18CD50AB
:102ACC00304600F05CF804F10B00231D20F00700E9
:102ADC00C31AD3D05A42E250D0E74B688C4216BF8F
:102AEC00636013600C46EBE70C464968CCE7C41CEA
:102AFC0024F00304A04205D0211A304600F02EF831
:102B0C000130CFD02560DBE7940000209800002036
:102B1C00F8B5074614460E4621B9BDE8F8401146F3
:102B2C00FFF79CBF22B9FFF74DFF25462846F8BD9D
:102B3C0000F026F8A0420FD221463846FFF78EFF50
:102B4C0005460028F2D031462246FFF717FF3146E2
:102B5C003846FFF737FFE9E73546E7E738B5002396
:102B6C00054C054608462360FDF77CFE431C02D14C
:102B7C00236803B12B6038BDD0000020704770472C
:102B8C0051F8043C181F002BBCBF0B58C0187047E1
:102B9C00F8B500BFF8BC08BC9E467047F8B500BF3E
:082BAC00F8BC08BC9E4670470E
:102BB400566F7A696C613A202575000049534B4C75
:102BC4004A5543454E4F21000203040506070809F0
:102BD4000A0B0C0D0E0F1010010200000203040575
:102BE400060708090A0B0C0D0E0F10100102000055
:102BF40000000000000000000102030406070809A9
:102C04000000000001020304232D302B2000686C17
:102C14004C006566674546470030313233343536FB
:102C24003738394142434445460030313233343534
:0C2C340036373839616263646566000061
:042C40003101000856
:042C44000D01000876
:102C48000024F40010000000010000001000002023
:102C5800000000000000000000000000000000006C
:102C6800000000000000000000000000000000005C
:102C7800000000000000000000000000000000004C
:102C8800000000000000000000000000000000003C
:102C9800000000000000000000000000000000002C
:102CA800000000000000000000000000000000001C
:04000005080008D512
:00000001FF
